:020000040800F2
:10000000E05D00202D03000803320008B52B000836
:1000100001320008C7080008CD41000800000000B8
:100020000000000000000000000000006D02000859
:10003000890B000800000000C90200089137000881
:100040004703000847030008470300084703000868
:100050004703000847030008470300084703000858
:100060004703000847030008470300084703000848
:10007000A90A00084703000847030008B50A00085A
:100080004703000847030008470300084703000828
:10009000C9080008D50800084703000847030008FE
:1000A0004703000847030008470300084703000808
:1000B00047030008470300084703000847030008F8
:1000C00047030008470300084703000847030008E8
:1000D00047030008094100084703000821410008C0
:1000E00047030008470300084703000847030008C8
:1000F00047030008470300084703000847030008B8
:1001000047030008470300084703000847030008A7
:100110004703000847030008470300084703000897
:1001200047030008C10A0008CD0A00084703000879
:100130004703000847030008470300084703000877
:10014000E1080008ED08000847030008470300081D
:1001500047030008D90A000847030008C141000806
:100160004703000847030008470300084703000847
:100170004703000847030008470300080000000089
:100180004703000847030008470300084703000827
:100190004703000847030008470300084703000817
:1001A00000000000000000004703000800F002F813
:1001B00000F04CF80AA090E8000C82448344AAF1B5
:1001C0000107DA4501D100F041F8AFF2090EBAE8B3
:1001D0000F0013F0010F18BFFB1A43F0010318477B
:1001E000BC9E0000DC9E00000A4410F8014B14F095
:1001F0000F0508BF10F8015B240908BF10F8014B78
:100200006D1E05D010F8013B6D1E01F8013BF9D1C0
:10021000641E03D0641E01F8015BFBD19142E4D35C
:10022000704700000023002400250026103A28BF54
:1002300078C1FBD8520728BF30C148BF0B60704758
:100240001FB508F06DFF1FBD10B510BD00F083FA9B
:100250001146FFF7F5FF04F089FF00F0A1FA03B49F
:10026000FFF7F2FF03BC00F0B1FA00002C4B196855
:100270000868B0E8F04F80F30988BFF36F8F4FF044
:10028000000080F3118870470000000008480068F3
:10029000006880F308884FF0000080F3148862B68D
:1002A00061B6BFF34F8FBFF36F8F00DF00BF00BF9A
:1002B00008ED00E0DFF80C00016841F47001016016
:1002C000704700BF88ED00E0EFF30980BFF36F8F48
:1002D000134B1A681EF0100F08BF20ED108A20E99A
:1002E000F04F106009B44FF0500080F31188BFF355
:1002F0004F8FBFF36F8F06F0A5FE4FF0000080F325
:10030000118809BC19680868B0E8F04F1EF0100F9A
:1003100008BFB0EC108A80F30988BFF36F8F704775
:1003200020010020EFF30580704700000948804756
:1003300009480047FEE7FEE7FEE7FEE7FEE7FEE7C7
:10034000FEE7FEE7FEE7FEE704480549054A064BDF
:10035000704700003D380008AD010008E05700205C
:10036000E05D0020E0590020E05900209FED1A1ABE
:10037000F5EE000A40EE010ABDEEE00AF5EEC00A15
:1003800010EE100AF1EE10FA38BF401E00EE100A0F
:100390001349F7EE001AB8EEC00A30EEC00ADFEDDE
:1003A0000F0A20EE200AFCEEC00A10EE900AC0F3FD
:1003B000080000EE900A01EB8000F8EE600A90ED74
:1003C000011A70EE600A90ED000A71EEE01A21EE5B
:1003D000800A00EE810A704783F9223E0000004443
:1003E00030970008B5EEC00AF1EE10FA07D2DFED43
:1003F0001E0AB4EEE00AF1EE10FAA8BF7047DFED76
:100400001B0AB5EEC00A60EE200ABDEEE01A11EE3E
:10041000100AF1EE10FA38BF401E00EE100A15491E
:10042000F7EE001AB8EEC00A30EEC00ADFED100A8F
:1004300060EE200ABCEEE00A10EE100AC0F30800DD
:1004400000EE100A01EB8000B8EE400A90ED011AB0
:1004500070EEC00A90ED000A71EEE01A21EE800AFB
:1004600000EE810A70470000CD024CB483F9223EB1
:10047000000000443097000853EA020C00F0698045
:100480002DE9F04B4FF00006002B1FBFB3FA83F5A8
:1004900003FA05F424FA05F65E4012BF1643B2FAD9
:1004A00082F502FA05F4C5F120051EBF22FA05FC0B
:1004B00044EA0C04203556EA044C4FEA144418BFB1
:1004C000641C4FF000084FF00009904271EB030CE0
:1004D00039D3002919BFB1FA81F701FA07F6B0FA4A
:1004E00080F700FA07F6C7F120071EBF20FA07FCC5
:1004F00046EA0C062037B6FBF4FCA7EB0507103FD5
:1005000007F01F0BCBF120060CFA0BFB2CFA06F6BA
:1005100044BFB3460026202FA4BF5E464FF0000B19
:100520005BEA060C08BF4FF0010B19EB0B09ABFBA4
:10053000027C48EB0608C01B06FB02CC0BFB03CC7D
:1005400071EB0C01C1E70B46024641464846BDE847
:10055000F08B13B54FF000004FF00001AFF30080B7
:10056000BDE81C407047032A40F2308010F0030CB5
:1005700000F0158011F8013BBCF1020F624498BFF6
:1005800011F801CB00F8013B38BF11F8013BA2F193
:10059000040298BF00F801CB38BF00F8013B11F00E
:1005A000030300F02580083AC0F0088051F8043BAE
:1005B000083A51F804CBA0E80810F5E7121D5CBF1B
:1005C00051F8043B40F8043BAFF30080D20724BF4E
:1005D00011F8013B11F801CB48BF11F8012B24BFE2
:1005E00000F8013B00F801CB48BF00F8012B704731
:1005F00010B5203AC0F00B80B1E81850203AA0E8BE
:100600001850B1E81850A0E81850BFF4F5AF5FEAF1
:10061000027C24BFB1E81850A0E8185044BF18C9A4
:1006200018C0BDE810405FEA827C24BF51F8043B4B
:1006300040F8043B08BF7047D20728BF31F8023B9F
:1006400048BF11F8012B28BF20F8023B48BF00F833
:10065000012B704702F0FF0343EA032242EA024201
:1006600000F002B84FF000020429C0F0128010F030
:10067000030C00F01B80CCF1040CBCF1020F18BF7E
:1006800000F8012BA8BF20F8022BA1EB0C0100F011
:100690000DB85FEAC17C24BF00F8012B00F8012BE4
:1006A00048BF00F8012B70474FF0000200B5134619
:1006B00094469646203922BFA0E80C50A0E80C5082
:1006C000B1F12001BFF4F7AF090728BFA0E80C5033
:1006D00048BF0CC05DF804EB890028BF40F8042B2C
:1006E00008BF704748BF20F8022B11F0804F18BF99
:1006F00000F8012B704770477047704710B500F045
:100700000DF8006810BD10B5044600F007F804604D
:1007100010BD000000487047805700200048704717
:10072000805700201FB584B000200A9C06AB04AAA5
:1007300002A90094AFF3008018B1DDE9020108B00E
:1007400010BD0348204000F039F800200146F6E7CC
:100750000000207C70477546FFF7DCFFAE460500C1
:100760006946534620F00700854618B020B5FFF7CC
:10077000EBFDBDE820404FF000064FF000074FF0C2
:1007800000084FF0000B21F00701AC46ACE8C009AF
:10079000ACE8C009ACE8C009ACE8C0098D467047B8
:1007A00010B50446AFF300802046BDE81040FFF7C7
:1007B00056BD002801D000F009B8704710B500F010
:1007C00025F8BDE81040FFF7F4BF000001491820EC
:1007D000ABBEFEE72600020070B505460C460A20B7
:1007E00000E06D1C00F068F835B128780028F8D1D9
:1007F00002E0641C00F060F814B120780028F8D101
:10080000BDE870400A2000F057B8000010B502287B
:1008100003D0410103D50DA112E0002010BD01015C
:1008200001D50FA10CE0C10001D511A108E08100A4
:1008300001D512A104E0400001D513A100E0002180
:1008400015A0FFF7C9FF012010BD0000496E7661B9
:100850006C6964204F7065726174696F6E0000008E
:10086000446976696465204279205A65726F000098
:100870004F766572666C6F7700000000556E646598
:1008800072666C6F77000000496E65786163742052
:10089000526573756C7400005349474650453A20C1
:1008A00041726974686D6574696320657863657009
:1008B00074696F6E3A20000008B569468DF8000033
:1008C0000320ABBE08BDFEE7014800F0D2BA00002D
:1008D00044080020014800F0CCBA00004408002081
:1008E000014800F0C6BA00006C080020014800F082
:1008F000C0BA00006C08002010B50246FF20054B6E
:1009000004E000BF12F8014B4440185D491EF9D2C3
:1009100010BD00001094000830B50C4605000BD047
:10092000022C09D9611EFFF7E7FF291911F8011CF4
:10093000884201D1012030BD002030BD10B5020039
:100940004FF6FF700BD0064B491E08D312F8014B2F
:100950004440E4B233F8144084EA1020F4E710BDB8
:100960001095000830B50C46050011D0022C0FD9A7
:10097000A11EFFF7E3FF2919C2B211F8023C9A4207
:1009800006D111F8011CB1EB102F01D1012030BDAF
:10099000002030BD3E4810B5D0ED080A9FED3B1A4F
:1009A0009FED3C0AF5EEC00AF1EE10FA0ED010EE03
:1009B000901A394A914209DA9FED380AC0EE801A3E
:1009C0009FED370AC0ED0A1A21EE800A3548B0F9CA
:1009D0002A30B0F9622000EE903AB0F99A10B0F9DE
:1009E000D240F8EEE00AF0EEE00A70EE810A01EE85
:1009F000102AB8EEC11AB0EEC11A71EE200A01EE4B
:100A0000101AB8EEC11AB0EEC11A71EE200A01EE4A
:100A1000104AB8EEC11AB0EEC11A31EE201AB4EE87
:100A2000C01AF1EE10FA30DDC0EE010A00EE103A05
:100A3000B8EEC00A20EE200ABDEEC00A10EE103A51
:100A400000EE102A4385B8EEC00A20EE200ABDEE63
:100A5000C00A10EE102A00EE101AA0F86220B8EEBC
:100A6000C00A20EE200ABDEEC00A10EE101A00EEF9
:100A7000104AA0F89A10B8EEC00A20EE200ABDEE87
:100A8000C00A10EE101AA0F8D21010BD000000002D
:100A90001C00002000007A470AD7A33E0AD7A33ED5
:100AA00000007A46B0150020014800F079BD000032
:100AB000980B0020014800F073BD0000380B0020A7
:100AC000014800F06DBD0000F80B0020014800F067
:100AD00067BD0000D80A0020014800F061BD000099
:100AE000580C002001681823CAB2103AB2FBF3F286
:100AF000054B6FF30901032A9B5CC36500D9091DEF
:100B000081650846704700001097000810B501463F
:100B100000208B698A6A4FF0C07453B1B3F5005F4F
:100B200015D072B1012A0CD0022A0AD0032A09D1A9
:100B300004E01AB1012A06D0022A03D1C96AC90108
:100B400000D5012010BDC96AA142FAD010BD002A0B
:100B5000F7D0012AF2D0022AF3D0032AF3D010BD35
:100B600030B50468256825F4802525600468636035
:100B70008368402B036803D099600068C26030BD71
:100B80009A600068C16030BD704772B6FEE790F8A9
:100B90002020012A07D0022A05D0416A41F4802191
:100BA000416201207047006842690A4342610020A7
:100BB0007047F0B590F820500468A468012D05D066
:100BC000022D03D0416A41F4802153E014F0406FBC
:100BD00001D1E5004BD5C4F30164022C03D9416A6D
:100BE00041F4000146E00125A5401D608D684FF4E9
:100BF000C0739DB1CE6835434E6845EAC6050668A8
:100C000003EB0417F5514FF4C275076805EB0415A3
:100C10000E697E51097D012905D009E00E88CD6855
:100C200045EA4655EBE701684E5946F480764E5149
:100C30001179D2F805504FF4C67641EA05250168CE
:100C400006EB04168D511178D2F801204FF4C475CB
:100C500041EA0221026805EB04155151006803EBDB
:100C60000411425842F0010242500020F0BD416A96
:100C700041F4001141620120F0BD000010B590F870
:100C80002020012A07D0022A05D0416A41F48021A0
:100C90004162012010BD3B48D0F8002242F0010221
:100CA000C0F80022D0F8002222F47C52C0F80022C2
:100CB000D0F800224B6A42EA0322C0F800220A7DE3
:100CC00002F01F0301229A40D0F81C329343C0F86F
:100CD0001C32CB69B3B9D0F80C329343C0F80C3254
:100CE0008C894B6864F31F434C6900EBC404C4F85F
:100CF00040320C890B6864F31F434C6900EBC40459
:100D0000C4F84432CB69012B16D1D0F80C3213430E
:100D1000C0F80C320C884B6864F31F434C6900EB3D
:100D2000C404C4F840320C89CB6864F31F434C6997
:100D300000EBC404C4F844328B69002BD0F80432B1
:100D40000ED01343C0F804320B69002BD0F81432D4
:100D500008D01343C0F81432096A012904D008E00E
:100D60009343EFE79343F5E7D0F81C121143C0F823
:100D70001C12D0F8001221F00101C0F8001200206E
:100D800010BD000000640040704730B590F820406E
:100D9000012C05D0022C03D0416A41F480215DE092
:100DA0000468002955D02469A40754D04FF4D8749E
:100DB000056804EB01142D5915F0040595600568CC
:100DC0002D594ED0ED08556005682C5904F00204E9
:100DD000D4604FF4DA74056804EB01142D5905F062
:100DE0000F05156105682D59C5F30725956105683F
:100DF0002C59240C54614FF4DC72046802EB01128C
:100E0000A4581C700468A458240A5C700468A45890
:100E1000240C9C700468A258120EDA704FF4DE7233
:100E2000046802EB0112A4581C710468A458240A37
:100E30005C710468A458240C9C710468A258120EBA
:100E4000DA71006881B1016941F02001016100207F
:100E500030BDE468A8E7416A41F400114162012015
:100E600030BD6D0D1560AFE7C16841F02001C16074
:100E7000EDE72DE9F05F0546006800244669D0F8EB
:100E800004908768D0F80CB0D0F810A0D0F8188083
:100E9000F10748D0F90714D001218160B80703D5C4
:100EA000284600F0F6FA0CE0780702D54FF400640B
:100EB00007E0380702D54FF4805402E0284600F0DE
:100EC000E7FAF80516D529684FF480708860B805F0
:100ED00003D5284600F0DFFA0CE0780502D544F48B
:100EE000005407E0380502D544F4804402E0284667
:100EF00000F0D0FAF80316D529684FF480308860E6
:100F0000B80303D5284600F0C8FA0CE0780302D5F0
:100F100044F4004407E0380302D544F4803402E08E
:100F2000284600F0B9FA300707D55FEACB6004D550
:100F30002968102044F40074C86070074FF0080757
:100F400007D55FEA0B7004D52868C760284600F013
:100F5000A9F9B00706D52868C068800702D02846DE
:100F600000F0A2F9700607D55FEACA6004D52968C7
:100F7000102044F480640861B00607D55FEA0A7067
:100F800004D528680761284600F052FAF00606D515
:100F900028680069800702D0284600F04AFAB003AA
:100FA00008D55FEAC96005D5296810204860284641
:100FB00000F040FAF00307D55FEA097004D528680D
:100FC0004760284600F06AFA300446D55FEA497067
:100FD00040D5F00504D55FEAC87001D044F00104A3
:100FE000B00504D55FEA887001D544F002047005AD
:100FF00004D55FEA487001D544F00404300529D5D2
:1010000018F0700F26D008F07000402815D006DCCC
:10101000102809D020280AD0302816D10AE05028FC
:101020000ED0602811D10EE044F008040DE044F029
:1010300010040AE044F0200407E044F0400404E017
:1010400044F0800401E044F480742868816921F050
:1010500070018161296804204860002C05D0686A0D
:10106000204368622846FFF78FFEBDE8F09F70B509
:10107000040003D094F8200010B104E0012070BDFA
:10108000204600F081F82068016841F0010101600C
:1010900000F018FD0546052604E000F013FD401B96
:1010A0000A2811D820684068C007F6D02068016877
:1010B00021F00201016000F005FD05460BE000F0A3
:1010C00001FD401B0A2806D9606A40F400306062C6
:1010D00084F82060D2E7206840688007EFD4207E43
:1010E0000128206801683DD021F080010160607E08
:1010F00001282068016838D021F040010160A07EFD
:1011000001282068016833D021F020010160E07ED1
:101110000128206801682ED041F010010160207F75
:1011200001282068016829D021F008010160607F52
:1011300001282068016824D021F004010160D4E96D
:1011400002010843D4E90412114308436168491EAF
:1011500008432168C86100206062012084F82000F3
:10116000002070BD41F08001C0E741F04001C5E7BB
:1011700041F02001CAE721F01001CFE741F008015A
:10118000D4E741F00401D9E7F0B587B00446142153
:101190006846FFF789FA3E4B3E48DFF8F0E01968F1
:1011A000D4F800C03B4A032502260927103000244A
:1011B000491CF4452AD11960012907D1016841F081
:1011C00000710160006800F000700590106840F048
:1011D000080010601068CDE9005600F00800CDE965
:1011E000047069462C48CDE9024500F04BFB002213
:1011F0000521142000F0D8FC142000F0C7FC0022C8
:101200000521152000F0D0FC15203BE0DFF88CE034
:10121000F44539D1D0F800C04CF0806CC0F800C063
:10122000D0F800C001290CF0806CCDF814C0196012
:1012300007D1016841F000710160006800F00070A2
:101240000590106840F002001060106802AB00F0DA
:10125000020005904FF44050CDE9000683E8B0004D
:1012600069460F4800F00EFB00220521402000F0E7
:101270009BFC402000F08AFC00220521412000F068
:1012800093FC412000F082FC07B0F0BD00640040F8
:101290001000002030380240000C0240006800407E
:1012A000000402407047000010B58AB0044607AB46
:1012B0006A460021FFF769FD49492068884248D104
:1012C0000098A0F50070013806D0012807D0022848
:1012D0000FD0032808D110E007A9424802E0414896
:1012E00007A9383003F025FF0098B0F5987F08D0A3
:1012F0002FE03C4807A97030F4E73A4807A9A83026
:10130000F0E7BDF81C10DFED380A00EE101A9FED73
:10131000371A374AB8EE400A20EE200A20EE010ABA
:10132000BCEEC00A10EE100A00EE101A1070314820
:10133000B8EE400A20EE200A80ED000ABDF81E003B
:1013400000EE100A2C48B8EE400AC0EE010AC0EDCB
:10135000000A2A492068884210D10099B1F5A87F77
:101360000ED02748A1F5807151391DD0012931D007
:10137000B42903D107A9234803F0E9FE0AB010BD40
:1013800021499DF81C000870BDF81D001F4940BA96
:101390000880BDF81F001E4940BA0880BDF8210032
:1013A0001C4940BA0880E9E7079901601A48079983
:1013B00001601A499DF82000087019499DF8210024
:1013C000088018499DF82200088017499DF82300DD
:1013D0000870D3E707994160144807990160CDE789
:1013E00000640040B0150020000000380000C84232
:1013F000480000203C000020400000200068004021
:10140000A4000020781500201C0000201E000020F1
:101410002000002022000020640000204D00002059
:10142000500000204A0000205300002058000020F7
:10143000704770477047000070B5044690F8200070
:10144000012804D0606A40F40020606218E00220A5
:1014500084F820002068016821F00101016000F09B
:1014600031FB05460EE000BF00F02CFB401B0A28B4
:1014700008D9606A40F400306062052084F82000DA
:10148000012070BD20684068C007EDD1606270BD6A
:10149000704770477047704770477047704710B586
:1014A000040002D0607910B106E0012010BD0020D8
:1014B0002071204600F004F801206071002010BD6A
:1014C00008B500680649884208D10648016841F419
:1014D00080510160006800F48050009008BD000059
:1014E00000300240303802402DE9F0410446876D5B
:1014F00000F0E8FA064694F835000025022806D0E8
:101500008020606584F834500120BDE8F0812068B7
:10151000016821F0160101602068416921F0800115
:101520004161206C08B9A06C20B12068016821F0ED
:10153000080101602068016821F0010101600CE0F0
:1015400000F0C0FA801B052807D920206065032021
:1015500084F8350084F83450D7E720680068C00765
:10156000EED194F85C103F208840B860012084F8E8
:10157000350084F834500020C7E790F83510022970
:1015800003D08021416501207047052180F8351086
:101590000068016821F0010101600020704700002F
:1015A0002DE9F84304464FF00009CDF80090634858
:1015B0004FF41651A56D0068B0FBF1F72E6894F852
:1015C0005C10082000FA01F131420FD021680A684E
:1015D00052070BD50A6822F004020A6094F85C10E6
:1015E0008840A860606D40F00100606594F85C1070
:1015F0004FF0010808FA01F0304208D0216849692B
:10160000090604D5A860606D40F00200606594F89A
:101610005C1004208840304208D02168096889079E
:1016200004D5A860606D40F00400606594F85C101B
:1016300010208840304218D021680968090714D565
:10164000A86020680168490304D50068000308D534
:10165000A16C07E00168C90503D4016821F0080105
:101660000160216C09B12046884794F85C10202065
:101670008840304231D021680968C9062DD5A8605C
:1016800094F8350005282068016806D0490347D53D
:10169000006800031DD4616C1CE021F0160101609C
:1016A0002068416921F080014161206C08B9A06C7B
:1016B00020B12068016821F00801016094F85C10F5
:1016C0003F208840A86084F8358084F83490216DEC
:1016D0001FE0E16B09B120468847606D00282BD0E0
:1016E000606DC00714D0052084F8350020680168BB
:1016F00021F0010101600098401C0090B84203D81D
:1017000020680068C007F6D184F8358084F83490EA
:10171000E16C002910D001B02046BDE8F043084735
:101720000168C905D5D4016821F01001016084F871
:10173000358084F83490CCE7BDE8F8831C010020A4
:101740002DE9F041044600F0BDF906465CB10220E7
:1017500084F83500002584F834502068016821F0B1
:10176000010101600DE00120BDE8F08100F0AAF95F
:10177000801B052805D920206065032084F83500EA
:10178000F2E720680068C007F0D12268116820489D
:101790000140D4E901031843D4E903363343184325
:1017A00063691843A3691843E3691843236A18431C
:1017B0000843616A042903D1D4E90B131943084390
:1017C000106020684069666A20F0070130460E43C9
:1017D000012704280CD1A06A0643E06A40B12046E4
:1017E000FFF794F920B14020606584F83570BAE7BE
:1017F000206846612046FFF775F994F85C203F2188
:1018000091408160656584F835700020ACE7000088
:101810003F8010F02DE9F0410446866D90F83400C9
:10182000002501280DD0012084F8340094F835708B
:101830000020012F07D084F8340002252846BDE897
:10184000F0810220FBE7022784F8357060652046AE
:10185000FFF786F994F85C103F208840B06020685C
:10186000016841F016010160206C20B12068016818
:1018700041F0080101602068016841F00101016048
:10188000DCE700002DE9F84FDFF8F8A10022012481
:1018900003254FF00F090AF1040BAAF1040E00BF53
:1018A0000B6804FA02F63340B34270D10F7907F0A7
:1018B0000307012F01D0022F16D187684FEA420893
:1018C00005FA08FC27EA0C07D1F80CC00CFA08FC52
:1018D0004CEA070CC0F808C04768B7430E79C6F356
:1018E000001696403E4346600E79F643B6070AD08E
:1018F000C7684FEA420C05FA0CF6B7438E6806FA41
:101900000CF63E43C6600E7906F00306022E10D197
:10191000D60800EB8608D8F8206057074FEAD76C46
:1019200009FA0CF7BE430F6907FA0CF73743C8F8FA
:10193000207006684FEA420C05FA0CF7BE430F7997
:1019400007F0030707FA0CF7374307604E6816F4F1
:10195000403F1CD04C4E376847F4804737603668AC
:1019600022F0030706F480460096484E07EB060C6B
:10197000DCF8086897073F0F09FA07F826EA080617
:10198000DFF80C81404503D14FF0000841E072E0E0
:10199000DFF80081404502D14FF0010839E0DFF85F
:1019A000F880404502D14FF0020832E0DFF8EC80C9
:1019B000404502D14FF003082BE0DFF8E4804045BA
:1019C00002D14FF0040824E0DFF8D880404502D16E
:1019D0004FF005081DE0DFF8D080404502D14FF000
:1019E000060816E0DFF8C480404502D14FF0070832
:1019F0000FE0DFF8BC80404502D14FF0080808E056
:101A0000DFF8B080404502D14FF0090801E04FF007
:101A10000A0808FA07F848EA0608CCF80888DAF84D
:101A200000605746D1F804C09E435FEACC2C00D535
:101A30001E433E60DBF800605F46D1F804C09E4361
:101A40005FEA8C2C00D51E433E60DEF800607746CE
:101A5000D1F804C09E435FEA8C3C00D51E433E6033
:101A6000084F083F3E68D1F804C09E435FEACC3C73
:101A700000D51E433E60521C102AFFF411AFBDE892
:101A8000F88F0000083C014044380240003001401B
:101A9000000002400004024000080240000C024026
:101AA000001002400014024000180240001C0240D6
:101AB00000200240002402400AB1816170470904FD
:101AC000FBE700000148806870470000100100201B
:101AD000024881680278114481607047100100203B
:101AE0000B4810B5016841F400710160016841F4D0
:101AF00080610160016841F480710160032000F0A1
:101B000073F80F2000F006F800F024F8002010BD54
:101B1000003C024070B50D4D04464FF47A712878B0
:101B2000B1FBF0F00A490968B1FBF0F000F0A4FB4A
:101B300048B9102C07D200222146501E00F034F87C
:101B400000206C6070BD012070BD000010010020FD
:101B50001C0100200C4882B0016841F48041016002
:101B6000006800F4804000900748001F016841F0C1
:101B7000805101600068002200F0805000900F2129
:101B8000901E02B000F010B844380240002809DB73
:101B900000F01F02012191404009800000F1E02087
:101BA000C0F8001170470000F0B40E4B1B680C46E3
:101BB000C3F30223C3F10705042D00D90425191D21
:101BC000072901D2002300E0DB1E012606FA05F1F9
:101BD000491E214099409E40761E16403143F0BC7C
:101BE00002F00DBB0CED00E0064900F007020868AA
:101BF0004FF6FF03184040EA0220034A10430860F2
:101C0000704700000CED00E00000FA052DE9F047F8
:101C10000E46050065D0DFF81481D8F80000F7B251
:101C200000F00F00B04207D288F80070D8F800002A
:101C300000F00F00B04254D128683D4C810712D506
:101C4000400703D5206840F4E05020602878000762
:101C500003D5206840F4604020602068A96820F027
:101C6000F000084320602878C0072DD0304968680C
:101C70000839012812D0022813D0032811D009688E
:101C8000890700292DDA216821F003010143216031
:101C9000FFF718FF814641F2883A0EE00968890390
:101CA000EFE709688901ECE7FFF70CFFA0EB0901FA
:101CB000514502D90320BDE8F0872068696800F02B
:101CC0000C00B0EB810FEFD1D8F80010404601F0C6
:101CD0000F01B14207D90770006800F00F00B04251
:101CE00001D00120E7E72878400705D52068E9689A
:101CF00020F4E050084320602878000706D52068CB
:101D0000296920F4604040EAC100206000F038F802
:101D10002168084AC1F30311515CC84006490860B4
:101D200006480068FFF7F6FE0020C4E7003C0240CA
:101D300008380240189700081C01002014010020F8
:101D40000448054900680968044AC1F38221515CCE
:101D5000C84070471C01002008380240289700083E
:101D60000448054900680968044AC1F34231515CDE
:101D7000C84070471C01002008380240289700081E
:101D8000154810B5006810F00C02144813D014491F
:101D9000042A0FD0082A0ED10F4C241F2268236872
:101DA00002F03F025B0207D52068C0F38810A0FB59
:101DB000010106E0084610BD2168C1F38811A1FBAE
:101DC00000010023FEF758FB2168C1F30141491CC3
:101DD0004900B0FBF1F010BD083802400024F400C7
:101DE000001BB7002DE9F84F04006ED02078DFF813
:101DF0004C93C007A9F104054AD009F10400016819
:101E0000C1F38101012908D00068C0F381000228D4
:101E10000AD1D9F80000400206D52868800337D5DA
:101E200060680028E1D033E06068B0F5803F10D0F2
:101E3000B0F5A02F286810D020F4803028602868E2
:101E400020F4802028606068A8B1FFF73BFE0646BA
:101E50000DE0286840F48030F4E740F480202860EA
:101E6000F7E700BFFFF72EFE801B642873D82868B1
:101E70008003F7D50CE0FFF725FE064605E000BF1E
:101E8000FFF720FE801B6428F0D828688003F7D471
:101E90002078DFF8AC8280074FF0000A3ED5A748D3
:101EA000001D016811F00C0F08D00068C0F381001C
:101EB00002280BD1D9F80000400207D42868800717
:101EC00016D5E068012800D112E033E1E068B8B12E
:101ED0000120C8F80000FFF7F5FD064605E000BF49
:101EE000FFF7F0FD801B0228C0D828688007F7D5CF
:101EF0002868216920F0F80040EAC10028600DE060
:101F0000C8F800A0FFF7DEFD064604E0FFF7DAFDA3
:101F1000801B02281FD828688007F7D42078000784
:101F200022D5864F87486169703771B10121016000
:101F3000FFF7C8FD064604E0FFF7C4FD801B02283A
:101F400009D838688007F7D50EE0C0F800A0FFF781
:101F5000B9FD064605E082E0FFF7B4FD801B0228CC
:101F60007DD838688007F7D42078400768D5DFF837
:101F7000CCB100270BF13C0BDBF80000C0000BD408
:101F8000DBF8001041F08051CBF80010DBF80000C6
:101F9000012700F0805000906B4E3068C00510D4CF
:101FA000306840F480703060FFF78CFD009005E0F1
:101FB000FFF788FD0099401A022850D83068C00504
:101FC000F6D55E4EA0686C3601280FD00528306823
:101FD00010D020F001003060306820F00400306044
:101FE000A068B8B1FFF76EFD00900FE0306840F0D8
:101FF0000100F4E740F004003060F7E7FFF762FD0E
:102000000099411A41F28830814266D830688007D1
:10201000F4D50EE0FFF756FD009007E0FFF752FD04
:102020000099411A41F28830814256D830688007C1
:10203000F4D42FB1DBF8001021F08051CBF8001060
:10204000A069C8B33D49091D0968C1F3810102298E
:102050004AD00228504607D0C8F8600000E03CE0B3
:10206000FFF730FD04463BE04746C8F86000FFF745
:1020700029FD064605E000BFFFF724FD801B02286E
:102080002BD828688001F7D4D4E907010843A16A56
:102090002E4A490802EB0141626A41EA8211084373
:1020A00094F82C1040EA0161C9F80010012038664C
:1020B000FFF708FD044606E03EE000BFFFF702FD23
:1020C000001B022809D828688001F7D534E000BF3A
:1020D000FFF7F8FC001B022802D90320BDE8F88FA7
:1020E00028688001F4D427E00128F7D0D9F800004F
:1020F000E26900F4800191421CD1226A00F03F01A4
:10210000914217D147F6C071626A0140B1EB821F5C
:1021100010D1A26A4FF0FF3300F4403103EB5202BA
:10212000B1EB024F06D194F82C1000F07060B0EBC8
:10213000016F01D00120D1E70020CFE70438024031
:1021400000004742800E4742007000400000FFFF41
:1021500070B5040009D0606A002540B12561656151
:10216000A56294F8510040B10CE0012070BD606898
:10217000B0F5827FF4D0E561F2E784F85050204654
:1021800000F044F8022084F851002068016821F032
:1021900040010160A088218900F4827001F40441AB
:1021A0000843A18901F400610843217C01F0020188
:1021B0000843217D01F001010843218B01F40071E6
:1021C0000843217F01F03801084394F8201001F002
:1021D00080010843218D01F4005108432168086003
:1021E000A069042101EA104094F8241001F01001C4
:1021F0000843216848602068C16921F40061C16119
:102200006565012084F85100002070BD10B586B0CE
:10221000044614216846FEF747FA144920688842AC
:1022200021D113480021026842F480120260006844
:1022300000F4801005900E481438026842F0200225
:102240000260006800F0200005904FF4607000907C
:102250000220CDE901010320039005200490694686
:102260000448FFF70FFB06B010BD0000005001400E
:10227000443802400014024010B5401EB0F1807F87
:1022800001D3012010BD4FF0E02460610F216017E1
:1022900001F0B5FF0020A06107202061002010BDE3
:1022A00010B590F83C20012A22D0012280F83C2071
:1022B000CA688C6822F4407222434C6822F480621F
:1022C00022430C6822F4006222430C6922F48052FB
:1022D00022434C6922F400522243C969002322F4AC
:1022E00080420A4301684A6480F83C30002010BDF7
:1022F000022010BD70B590F83C20012A32D0012494
:1023000080F83C40022280F83D2003685A689D68AE
:1023100022F070060A6832435A60134B02689A42F0
:1023200014D0B2F1804F11D0104B9A420ED0104B06
:102330009A420BD00F4B9A4208D00F4B9A4205D0CD
:102340000E4B9A4202D00E4B9A4204D1496825F0B6
:1023500080031943916080F83D40002180F83C10D3
:10236000084670BD022070BD00000140000400401E
:1023700000080040000C0040000401400040014003
:102380000018004070B586B0044614216846FEF778
:102390008BF922680024334902250123B2F1804FD2
:1023A00012D03148824223D1086840F00200086010
:1023B0000868694600F0020005904FF440700090F4
:1023C000CDE90154294836E0086840F00100086072
:1023D0000868694600F0010005900F200090CDE9E3
:1023E0000154CDE903432248FFF74CFA06B070BD13
:1023F000204E2148B24221D10A6842F480720A601C
:102400000A6802F4807205920A6842F080020A604B
:1024100009680093CDE9015401F08001CDE9045130
:1024200003946946FFF72EFA4FF4E0500090CDE98F
:10243000015412486946CDE90345D5E7104B9A424D
:10244000D4D10A6842F480720A60096801F480718C
:102450000591E4210091CDE901540321CDE9034127
:102460006946C1E7303802400008004000040240DD
:1024700000000240000C004000200240001C02400E
:102480000004014070B5044690F83C0000260D465B
:1024900001280FD0012084F83C006AB1042A1DD025
:1024A000082A2FD00C2A3FD00126002084F83C00B7
:1024B000304670BD022070BD206801F02BFA206804
:1024C000816941F0080181612068816921F004017E
:1024D0008161206881692A69114311E0206801F057
:1024E00049FA2068816941F400618161206881694D
:1024F00021F480618161206881692A6941EA0221B1
:102500008161D2E7206801F06BFA2068C16941F06F
:102510000801C1612068C16921F00401C16120681E
:10252000C1692A69114311E0206801F08DFA206821
:10253000C16941F40061C1612068C16921F4806111
:10254000C1612068C1692A6941EA0221C161ACE721
:1025500010B5040003D094F83D0010B107E001204D
:1025600010BD002084F83C00204600F01FF8022037
:1025700084F83D00211D206801F068F9012084F8ED
:10258000460084F83E0084F83F0084F8400084F858
:10259000410084F8420084F8430084F8440084F841
:1025A000450084F83D00002010BD000008B501681A
:1025B0001748B1F1804F0BD0164A914210D10168F3
:1025C00041F004010160006800F00400009008BDC3
:1025D000016841F001010160006800F00100F5E7C9
:1025E0000D4A914207D1016841F00801016000687D
:1025F00000F00800EAE709488142E8D10448001DDC
:10260000016841F002010160006800F00200DDE7AE
:102610004038024000080040000C00400004014027
:1026200070477047F8B5016804460868CA684B6986
:1026300010F00F0F4FF000055AD003F0010602F41E
:102640009077374365D0C10705D0D10503D5216CFC
:1026500041F001012164410705D5D90703D0216C60
:1026600041F002012164810705D5D90703D0216C0F
:1026700041F004012164010707D502F02001314334
:1026800003D0216C41F008012164216C00293BD06A
:10269000800604D5900602D5204601F085FA206810
:1026A0004069216CC0F3801001F00801014320460D
:1026B0002BD001F044FA20684069400621D52068FB
:1026C000143050E8001F21F0400140E80012002AB9
:1026D000F5D1A06BA8B16C490165A06BFEF74DFF69
:1026E000002811D0A06B016D01B0BDE8F040084793
:1026F00083060ED593060CD52046BDE8F84001F0C0
:1027000053BA2046FFF78DFFF8BDFFF78AFF256417
:10271000F8BD266B2023012E79D1C60677D5D606C3
:1027200075D50868486800904869400640D5A16B97
:10273000086840680004000CEAD0A28D8242E7D904
:10274000E085C869B0F5807F2DD020680C3050E856
:10275000001F21F4807140E80012002AF5D12068A2
:10276000143050E8001F21F0010140E80012002A57
:10277000F5D12068143050E8001F21F0400140E8F6
:102780000012002AF5D184F83E30256320680C3011
:1027900050E8001F21F0100140E80012002AF5D196
:1027A000A06BFEF7A1FEA08DE18D401A81B229E059
:1027B000A08DE18D401A81B2E08D0028A8D00029BB
:1027C000A6D020680C3050E8002F22F4907240E828
:1027D0000026002EF5D12068143050E8002F22F09A
:1027E000010240E80026002EF5D184F83E30256332
:1027F00020680C3050E8002F22F0100240E800233F
:10280000002BF5D12046FFF70BFFF8BDFFE70506CB
:102810002BD5150629D594F83D002128F5D1A068BF
:10282000B0F5805F01D12069B0B1206A411C2162FE
:10283000216800784860E08C401E0004000CE084B1
:10284000E3D12068C16821F08001C1602068C168BF
:1028500041F04001C160D8E7206A0088C0F3080059
:102860004860206A801C2062E5E74006CDD550060E
:10287000CBD5CA68204622F04002CA6084F83D30B9
:1028800000F096F9C1E70000993A000870B504001D
:1028900004D094F83D00002510B106E0012070BD81
:1028A00084F83C50204600F023F8242084F83D00B2
:1028B0002068C16821F40051C160204601F0D4F9BC
:1028C0002068016921F4904101612068416921F08B
:1028D0002A0141612068C16841F40051C16025644A
:1028E000202084F83D0084F83E00002070BD0000E8
:1028F0002DE9F04F87B0044614216846FDF7D4FE59
:102900007D48DFF8F0811438D4F800C07A4B0221FA
:1029100003220727002506154FF00069C44536D16C
:10292000D3F800C04CF0100CC3F800C01B6803F0D3
:1029300010030593036843F002030360006800F08E
:1029400002000590C0208DE82300CDE903276946E9
:102950006A48FEF797FF6B4F69483860C7E90195F1
:10296000C7E9035680157D61C7E906503D623846C8
:102970007D62FEF7E5FE08B1FEF707F9A7630022C6
:1029800005212520BC63FFF70FF9252059E0DFF86A
:1029900078814FF0400B4FF4003AC44556D1564B66
:1029A0001B1FD3F800C04CF4802CC3F800C01B6878
:1029B00003F480230593036843F008030360006871
:1029C00000F0080005904FF440708DE82300CDE939
:1029D000032769464D48FEF755FF4A4F4C4860377C
:1029E0003860C7E903567D61BD61C7E9075A4005F4
:1029F0007D62C7E9010B3846FEF7A2FE08B1FEF77B
:102A0000C4F86763BC633F4F4148C03748383860FB
:102A1000C7E90195C7E903567D614FF44030BD61B8
:102A2000C7E9075038467D62FEF78AFE08B1FEF717
:102A3000ACF8A763002205212720BC63FFF7B4F898
:102A40002720FFF7A3F807B0BDE8F08F314FBC4552
:102A5000F9D11F6847F020071F601B6803F02003AF
:102A60000593036843F040030360006800F04000F2
:102A700005904FF484408DE823000820CDE9032021
:102A800069462548FEF7FEFE1D48244F18384FF0D2
:102A900020683860C7E90185C7E903567D61BD61DB
:102AA000C7E9075A38467D62FEF74AFE08B1FEF7CD
:102AB0006CF8A763BC63194F114860376030C7E9F1
:102AC00003567D61BD6187E801094FF44030C7E9D5
:102AD000075038467D62FEF733FE08B1FEF755F821
:102AE0006763002205214720BC63FFF75DF847209C
:102AF000A7E70000001001404438024000040240F3
:102B000040640240D80A002000480040000C024007
:102B1000706002400014014000180240F80B0020D1
:102B20007047000070B5044690F83D00202836D16B
:102B300091B38AB394F83C00012830D0012084F886
:102B40003C002162A284E28400252564212084F8CF
:102B50003D00636B1348D863636B13481864636B61
:102B60001248D864606B134605652668606B321D99
:102B7000FEF750FE21686FF04000086084F83C507A
:102B80002068143050E8001F41F0800140E8001236
:102B9000002AF5D1002070BDFFE70120FBE70220ED
:102BA000F9E70000F33A0008353B0008A93A0008AD
:102BB00070477047FEE70000114810B50F490160EB
:102BC0000321416000214FF08072C0E902124FF4EE
:102BD000102202614FF40012426101764176817643
:102BE0000122C27601774177FEF741FA002803D02F
:102BF000BDE81040FDF7C9BF10BD000000640040F3
:102C000044080020114810B50F49016003214160BC
:102C100000214FF08072C0E902124FF410220261CD
:102C20004FF4001242610176417681760122C2762C
:102C300001774177FEF71BFA002803D0BDE810406A
:102C4000FDF7A3BF10BD0000006800406C08002025
:102C5000074910B5054808600846FEF720FC002823
:102C600003D0BDE81040FDF790BF10BD003002401A
:102C7000140000201D4808B5016841F4800101607E
:102C8000016801F480010091016841F400110160C4
:102C90000068002200F40010009005210C20FEF7CF
:102CA00083FF0C20FEF772FF002205210F20FEF7A4
:102CB0007BFF0F20FEF76AFF002205213920FEF777
:102CC00073FF3920FEF762FF002205213A20FEF74C
:102CD0006BFF3A20FEF75AFF002205214520FEF740
:102CE00063FFBDE808404520FEF750BF3038024082
:102CF00010B59CB01C2216496846FDF779FC0021EE
:102D0000684602F06AFA134C11491C2220601C31FB
:102D100007A8FDF76DFC002107A802F05EFA0C4938
:102D200060601C2238310EA8FDF762FC00210EA85D
:102D300002F053FA0649A0601C22543115A8FDF791
:102D400057FC002115A802F048FAE0601CB010BD45
:102D5000A0930008000000202DE9F04786B0142160
:102D60006846FDF7A1FC3C480024016841F00201DF
:102D70000160016801F002010591016841F0400124
:102D80000160016801F040010591016841F0010115
:102D90000160016801F001010591016841F008013D
:102DA0000160016801F008010591016841F480713A
:102DB0000160016801F480710591016841F08001B2
:102DC0000160016801F080010591016841F0200176
:102DD0000160016801F020010591016841F01001D6
:102DE00001600068DFF8748000F010000590002298
:102DF0003C214046FEF760FEDFF8649044F2400656
:102E0000002231464846FEF757FEDFF858A04FF43F
:102E10000067002239465046FEF74EFE3C200090E7
:102E20000125CDE90154694640460394FEF72AFD89
:102E30000096CDE90154694648460394FEF722FD09
:102E40000097CDE90154694650460394FEF71AFDF8
:102E500006B0BDE8F087000030380240001C024098
:102E60000014024000100240104810B50E490160E5
:102E70004FF48271416000218160C1604FF40072A3
:102E80000161C0E905123022C0E907214162816277
:102E90000A21C162FFF75CF9002803D0BDE81040A9
:102EA000FDF773BE10BD00000050014094080020E3
:102EB00010B58AB0002407941C2168460894FDF7D9
:102EC000F3FB23484FF080410160A721C0E90114C2
:102ED00042F20F71C0E903148461FFF739FB08B1B6
:102EE000FDF753FE079407A919480894FFF702FA63
:102EF00008B1FDF74AFE6020009041F28830CDE92C
:102F000001040022694612480494FFF7BBFA08B195
:102F1000FDF73BFE042269460D48FFF7B3FA08B1FE
:102F2000FDF733FE082269460948FFF7ABFA08B1FE
:102F3000FDF72BFE0C2269460548FFF7A3FA08B1FE
:102F4000FDF723FE0248FFF71DFA0AB010BD00008E
:102F5000EC08002010B58AB0002407941C216846B4
:102F60000894FDF7A1FB1B4819490160A721C0E99E
:102F7000011442F20F71C0E903148461FFF7E8FA0B
:102F800008B1FDF702FE079407A912480894FFF75D
:102F9000B1F908B1FDF7F9FD6020009041F28830E9
:102FA000CDE90104082269460A480494FFF76AFA49
:102FB00008B1FDF7EAFD0C2269460648FFF762FA00
:102FC00008B1FDF7E2FD0348FFF7DCF90AB010BDD8
:102FD000000800403409002010B58AB0002407948E
:102FE0001C2168460894FDF75FFB234821490160D6
:102FF000A721C0E9011442F20F71C0E903148461F2
:10300000FFF7A6FA08B1FDF7C0FD079407A91A4813
:103010000894FFF76FF908B1FDF7B7FD6020009045
:1030200041F28830CDE90104002269461248049437
:10303000FFF728FA08B1FDF7A8FD042269460E48FB
:10304000FFF720FA08B1FDF7A0FD082269460A48FB
:10305000FFF718FA08B1FDF798FD0C2269460648FB
:10306000FFF710FA08B1FDF790FD0348FFF78AF962
:103070000AB010BD000C00407C09002010B592B0D1
:1030800000240F941C2168461094FDF70DFB2021AD
:1030900007A8FDF709FB2E482C49016040F24F11AB
:1030A000C0E9011442F20F71C0E903144461846164
:1030B000FFF74EFA08B1FDF768FD0F940FA92448F9
:1030C0001094FFF717F908B1FDF75FFD602000903D
:1030D00041F28830CDE90104039404940594002260
:1030E00069461B480694FFF7CDF908B1FDF74DFD81
:1030F000042269461648FFF7C5F908B1FDF745FDFA
:10310000082269461248FFF7BDF908B1FDF73DFDF9
:103110000C2269460E48FFF7B5F908B1FDF735FDF9
:103120000794089409944FF400500A94CDE90B4099
:1031300007A907480E94FFF7B3F808B1FDF725FD7E
:103140000348FFF71FF912B010BD00000004014052
:10315000C40900200C4810B50A4901600B494160C0
:10316000002181600C22C160C0E904128161C1614B
:10317000FFF78CFB002803D0BDE81040FDF705BD2C
:1031800010BD0000001001400C0A0020A0860100C4
:103190000C4810B50A4901604FF4E131416000214B
:1031A00081600C22C160C0E904128161C161FFF736
:1031B0006DFB002803D0BDE81040FDF7E6BC10BD54
:1031C00000480040500A00200C4810B50A49016030
:1031D0004FF4E1314160002181600C22C160C0E9FF
:1031E00004128161C161FFF751FB002803D0BDE8E3
:1031F0001040FDF7CABC10BD00140140940A002025
:10320000FEE7FEE700B390ED102A80ED112A90ED65
:103210000F1A80ED101AD0ED0D1AC0ED0E1AD0ED78
:103220000C1AC0ED0D1AC0ED060A70EEC00A80ED52
:10323000070AC0ED0F0A70EEC11AC0ED0C1A017832
:1032400029B101293BD037E09FED370A704790ED57
:10325000010A20EE201A80ED091A90ED0A0A90ED7D
:10326000022A02EE200A80ED0A0AD0ED030A61EE7E
:10327000A01AC0ED0B1AD0ED050AB4EEE00AF1EE8B
:1032800010FA01DDB0EE600AF1EE600A80ED0A0A84
:10329000B4EEE00AF1EE10FA01D2B0EE600A80ED71
:1032A0000A0A31EE000A30EE210A28E0B0EE600A88
:1032B0002EE000BF80ED080A90ED080A704790EDFF
:1032C000010AF0EE002A21EE800A80ED090AD0ED15
:1032D000021A61EEA01A41EE620AC0ED0A1A90EDE0
:1032E000031A30EE210A70EE820A60EE810AC0ED08
:1032F0000B0A30EE200AD0ED080A30EE200A80EDED
:10330000080AD0ED040AB4EEE00AF1EE10FACDDCC2
:10331000F1EE600A80ED080AB4EEE00AF1EE10FA70
:10332000C8D2B0EE600AC5E700000000002828D02F
:10333000002A26D0017092ED001A80ED011A92ED5C
:10334000011A80ED021A92ED021A80ED031A80ED47
:10335000040A9FED0C0AC0ED050A80ED0B0A80ED12
:103360000A0A80ED090A80ED080A80ED0E0A80ED58
:103370000D0A80ED0C0A80ED110A80ED100A80ED37
:103380000F0A70470000000078B40021ADF800106B
:103390005E49026840F20325C1F81E20027981F8D7
:1033A0002220B0F80520ADF8002092B2584BA2F2CE
:1033B00003244FF48176AA4275D033DCB2425DD04B
:1033C00015DC032A55D007DC012A48D0022A01D196
:1033D000C079087178BC7047042AFBD0A2F58072CE
:1033E000013AF7D1D0F80700C1F80E00F2E740F239
:1033F0000514A2F20513A2424CD00ADCA2F5807299
:10340000033A40D0012AE5D1B0F80700A1F809003D
:10341000E0E7FC2B42D0FD2BDCD1C11D3C48102243
:10342000423070E0062C59D007DC062CD2D2DFE8FF
:1034300004F0033F41444750CCE7072C53D0FE2C07
:1034400058D0B4F5807F5AD0B442C3D150F8071F8A
:1034500043F8711F4168596000891881BAE750F834
:10346000071F19604168596001891981807A987233
:10347000B0E7C11D26481C220B3044E0D0F80700FD
:10348000C1F81200A6E7B0F80720A1F80B20407A97
:1034900048739FE7C07948719CE704E0C11D1C4850
:1034A0001B2227302FE0C11D1948102252302AE07C
:1034B000C0790CE0C079C8718CE7C079087289E7DF
:1034C00050F8072F41F8352F82888A8080798871DB
:1034D00080E750F8072F41F8232F08E0D0F80700C5
:1034E000C1F8160076E750F8072F41F8292F808899
:1034F00088806FE7D0F80700C1F81A006AE7C11D9D
:1035000003480F22623078BCFDF72DB8D4000020AC
:103510001018002070B5244D0024244EC5F81E401C
:1035200085F82240346074603481B4722C711C219F
:1035300006F10B006D1DFDF795F8C5F80940C5F8BB
:103540000D40EC802C72AC802C701B2106F1270002
:10355000FDF788F8102106F14200FDF783F81021ED
:1035600006F15200FDF77EF86C70AC70EC702C63C5
:10357000AC8685F83640C5F81E406C84C5F811400D
:103580006C622C85C5F82A40EC85C5F815400F21E2
:1035900006F16200FDF766F8C6F87140C6F875409E
:1035A000A6F8794070BD0000D4000020101800205B
:1035B000F0B52F4B1C68656945F0400565611C68D6
:1035C000656945F0800565611C68E56845F0100592
:1035D000E56003E0256825F0010525609E6B3468F1
:1035E0002568ED07F6D1DFF88CC037684FF4006529
:1035F000674502D91F4C4C3C04E01F4FBC4203D925
:103600001C4C503C25600AE0DFF86CC01A4FACF14E
:10361000600CB83F644501D9FD6000E0BD601C68E6
:103620003568241DAC609C6B2468E060986B006872
:103630000161986B00684260986B0068016841F412
:1036400080210160986B0068016841F0010102E08F
:10365000016821F001010160586B00680168C90729
:10366000F6D1596B18680968001D8860F0BD00002C
:10367000500A002058640240B86002402DE9F04131
:10368000A527861D8846044600256BE0404601F0CC
:10369000EFFC94F88610062946D2DFE801F0031209
:1036A0001B2A3448B84209D1012184F88610B4F8A5
:1036B00087104A1CA4F88720885553E0A4F8875047
:1036C00050E0A080B4F887104A1CA4F887208855E1
:1036D000022015E0A18841EA0021A180B4F88710FA
:1036E0004A1CA4F887208855A08877281CD203207C
:1036F00006E0B4F887104A1CA4F8872088550420F7
:1037000084F886002EE0B4F887104A1CA4F88720BD
:103710008855B4F88700052824D10521A01DFDF7A0
:10372000FBF808B10520EBE784F88650C6E7A188CE
:10373000B4F8872009318A4203D2511CA4F88710BB
:103740009055A188B4F88700093188420AD384F8DB
:103750008650A4F88750A01DFDF704F910B1A01DF4
:10376000FFF712FE404601F0E2FC00288ED1BDE8D2
:10377000F08100004FF4966003F0A6FB034901F5C9
:103780008360FFF77BFF0520F6E70000B8100020FC
:1037900010B5FEF79DF904F00BF8012803D0BDE841
:1037A000104003F001BD10BD30B593B03021684624
:1037B000FCF77AFF14210CA8FCF776FF1D480025C2
:1037C000016841F080510160006800F08050119064
:1037D0001948016841F4404101600068022400F486
:1037E0004040119001200090000401908001CDE93B
:1037F000064006200890A820CDE9090404200B907B
:103800006846FEF7EFFA08B172B6FEE70CA90F2082
:1038100081E831004FF4A0500F904FF48050109089
:1038200005210CA8FEF7F2F9002801D072B6FEE7D8
:1038300013B030BD403802400070004002480168BB
:1038400041F470010160704788ED00E0F0B5026856
:10385000254C264D264E274F274B4FF0804CA0423B
:1038600009D0604507D0A84205D0B04203D0B84285
:1038700001D0984204D122F0700E4A6842EA0E024A
:10388000A0421BD0604519D0A84217D0B04215D035
:10389000B84213D0984211D0184DA8420ED0184DFE
:1038A000A8420BD0174DA84208D0174DA84205D00A
:1038B000164DA84202D0164DA84203D122F44075FD
:1038C000CA682A434D6922F080022A4302608A684E
:1038D000C2620A688262A04201D0984201D109699D
:1038E000016301214161F0BD00000140000400407E
:1038F00000080040000C004000040140004001406E
:10390000004401400048014000180040001C0040F5
:1039100000200040F0B5026A22F001020262036A50
:1039200042688469124E24F073050C682C4323F01E
:1039300002058B682B430D4DA84201D0B04205D142
:1039400023F00807CB683B4323F00403A84201D0CF
:10395000B04205D14D6922F4407215438A692A4369
:1039600042608461496841630362F0BD0000014028
:1039700000040140F0B5026A22F010020262026AFD
:10398000436884690D6824F4E64444EA05248D689C
:1039900022F0200242EA05120F4D104EA84201D03B
:1039A000B04206D1CF6822F0800242EA071222F02C
:1039B0004002A84201D0B04207D14D6923F44063D0
:1039C00043EA85038D6943EA85034360846149685E
:1039D00081630262F0BD000000000140000401406C
:1039E000F0B5026A22F480720262026A4368C46916
:1039F00022F4007224F073050C68124E2C438D687B
:103A000042EA05220E4DA84201D0B04206D1CF684D
:103A100022F4006242EA072222F48062A84201D026
:103A2000B04207D14D6923F4405343EA05138D6931
:103A300043EA05134360C4614968C1630262F0BD93
:103A4000000001400004014030B5026A22F48052B7
:103A50000262046A4268C3690D6823F4E64343EADC
:103A600005238D6824F4005444EA0534084DA84227
:103A700002D0084DA84204D14D6922F4804242EAA6
:103A800085124260C36149680164046230BD000070
:103A9000000001400004014010B5806B0021C18589
:103AA000C184FEF7BEFD10BD70B5846B206840690F
:103AB00094F83D10C0F3C0100025212904D118B19D
:103AC000E584204600F062F82068406994F83E10D2
:103AD000C0F38010222904D118B1E585204600F0FA
:103AE0002EF8206C40F0100020642046FEF799FD6F
:103AF00070BD10B50146806B09680968C90516D408
:103B00000021C1840168143151E8002F22F08002A5
:103B100041E80023002BF5D101680C3151E8002F5A
:103B200042F0400241E80023002BF5D110BDFFF721
:103B30003FF810BD10B5806BFFF73BF810BD016872
:103B40000C3151E8002F22F4907241E80023002B41
:103B5000F5D10168143151E8002F22F0010241E84B
:103B60000023002BF5D1016B012909D101680C312B
:103B700051E8002F22F0100241E80023002BF5D17C
:103B8000202180F83E1000210163704701680C314C
:103B900051E8002F22F0C00241E80023002BF5D1AC
:103BA000202180F83D10704708B590F83E1022297A
:103BB00001D0022008BD82684FF480539A4201D19F
:103BC000016921B1816A9A421BD04AB10AE00268B8
:103BD000816A5268C2F308020A80816A891C08E07F
:103BE000026972B10268526802F07F020A70816A4B
:103BF000491C8162C18D491E0904090CC18503D08D
:103C000019E002685268F1E70168CA6822F02002F0
:103C1000CA600168CA6822F48072CA6001684A6991
:103C200022F001024A61202180F83E10016B012937
:103C300003D0FEF775FF002008BD00210163016875
:103C40000C3151E8002F22F0100241E80023002B34
:103C5000F5D101680A68D20602D50A684968009160
:103C6000818DFEF7DDFCE6E770B50446006801696A
:103C7000E26821F44051114301612169A068E269C1
:103C800008436169114308432168CA6849F20C631B
:103C90009A430243CA6020684169A26921F44071D5
:103CA0001143416131492068884202D0304988423D
:103CB00002D1FEF755F801E0FEF742F8E269002371
:103CC000192164253226B2F5004F626828D0A0FB86
:103CD0000101930F9200FCF7CFFB0146B0FBF5F01A
:103CE0006FF01802504301EB800006EB0010B0FBB0
:103CF000F5F000F0F002B1FBF5F002EB0012B1FBC1
:103D0000F5F06FF01803584301EB800006EB00104C
:103D1000B0FBF5F000F00F0021681044886070BD22
:103D2000A0FB010192185B41FCF7A6FB0146B0FB2A
:103D3000F5F00201B1FBF5F06FF01803584301EB09
:103D4000800006EBC000B0FBF5F000F0F80002EBDD
:103D50004002B1FBF5F0584301EB800006EBC000D8
:103D6000B0FBF5F000F00700D6E7000000100140BE
:103D7000001401402DE9F04F0DF1240898E8F01EE1
:103D800091F8008000F8018B91F8018080F80080A4
:103D900089784170817862F3020121F03801203185
:103DA0008170418863F389114180C17864F3850192
:103DB000C170B0F8032065F38E12A0F8032081884B
:103DC00066F3CF118180C18867F30901C180B0F823
:103DD000071069F38C01A0F8071002896AF34F12EB
:103DE0000281B0F80B106BF38C01A0F80B108289E4
:103DF0006CF34F128281BDE8F08F00002DE9F04393
:103E00000DF11C08DFED260A98E8F01291F8008009
:103E100000F8018B91F8018080F80080897841706A
:103E2000817820EE200A62F3020121F03801283166
:103E300081704188BDEEC00A63F389114180C17869
:103E400064F38501C170B0F8031065F38E11A0F81A
:103E50000310818866F3CF118180C18867F309015F
:103E6000C180B0F8071069F38C01A0F8071002892F
:103E700010EE101A6CF34F12028142898B0A61F323
:103E800009024281B0F80B2063F38C02A0F80B20EA
:103E90004A0D818962F34F118181BDE8F0830000F2
:103EA00000007A442DE9F0430DF11C0898E8F01267
:103EB00091F8008000F8018B91F8018080F8008073
:103EC00089784170817862F3020121F038018170B4
:103ED000418863F389114180C17864F38501C17021
:103EE000C18865F30901C180B0F8071066F38C0141
:103EF000A0F80710018967F34F110181B0F80B108A
:103F000069F38C01A0F80B1082896CF34F12828147
:103F1000BDE8F0832DE9F04791F80080DDE90DA4BC
:103F2000DDE90A57DDE908C90C9E80F8008091F8A8
:103F3000018080F8018089788170C17862F3020184
:103F400041F03801C170B0F8031063F38911A0F893
:103F5000031001796CF385010171828869F38E1277
:103F60008280B0F8051065F3CF11A0F80510B0F805
:103F7000071067F30901A0F80710018966F38C01A7
:103F80000181B0F8092000216AF34F12A0F809203E
:103F900005E000BF431814F8012BDA73491CA9424D
:103FA000F8DBBDE8F087000070B50546A520164691
:103FB0000C460870012D06D0022D06D0052D06D026
:103FC000072D06D008E0152104E0242102E051214C
:103FD00000E06F21A4F80110E0780421401CE0709B
:103FE0002046FCF789FC207140F20131A4F805104D
:103FF000012D06D0022D07D0052D08D0072D09D0A0
:104000000CE040F2011107E04FF4817104E040F24E
:10401000031101E04FF48271A4F80710A4F80960BD
:1040200006F58076A4F80B601F4E012D13D0022DEB
:104030001ED0052D2AD0072D0CD1254676212046ED
:10404000FCF77CFCA5F87600782221461748FEF79D
:1040500069FDF07070BD25461C212046FCF76EFC02
:10406000A8831E2221461148FEF75CFD307070BD0A
:1040700025462B212046FCF761FCA5F82B002D22BC
:1040800021460A48FEF74EFD707070BD2546582146
:104090002046FCF753FCA5F858005A222146034855
:1040A000FEF740FDB07070BDD4000020500A002023
:1040B00070B50446A52020703320A4F80100E078F4
:1040C0000D46401CE07004212046FCF715FC2071D1
:1040D00040F20130A4F805004FF48870A4F80700FE
:1040E000A4F8095005F58075A4F80B503A21204634
:1040F000FCF724FC60872146BDE870403C22014863
:10410000FEF710BD500A002010B5044802F06EFD05
:10411000BDE810400148FEF785BA00000C0A0020F7
:10412000234818B401680A68920603D508684868ED
:10413000009038E00A68D20635D50A6849680091CF
:10414000816B09680A681B4B12030A684FF40074FC
:1041500022F001020A60816B09684A68C2F50072A8
:1041600092B2DA814C60816B09680B680CD443F41D
:1041700000230B60806B0068016841F00101016061
:104180000D4901F580600BE023F400230B60806B88
:104190000068016841F001010160084901F5007003
:1041A00018BC00F086BF18BC0148FEF73BBA0000FF
:1041B000500A002048000020B80C0020B80E002053
:1041C0000148FEF72FBA0000940A0020FEE703B46E
:1041D00001984100009850EAC12018BF04204A0D00
:1041E00018BF40F0010040F2FF72B2EB515F08BF10
:1041F00040F00200012808BF052002B070470907FF
:10420000090E002804DB00F1E02080F8001470475C
:1042100000F00F0000F1E02080F8141D704700004E
:1042200010B51D499FED1A1B2DED020B84B00598AA
:1042300020F000408842DCBF01209DED040B21DD11
:104240001649884209D1049840B94FF00100FCF7A3
:104250005AFA00F071FC06B010BD05DB9DED040BB1
:1042600000F05EFC06B010BD68469DED040B00F04A
:1042700017F800F001000121A1EB40009DED021BA9
:104280009DED000B00F0A4FA06B010BD0000000088
:104290000000000000000000FB21E93F0000F07F6B
:1042A0002DE9F14F04462DED020B2DED088B8AB060
:1042B0009FEDE70B80ED020B139EE74826F00045CB
:1042C00085420ADC9DED120B002084ED000B0AB044
:1042D000BDEC088B03B0BDE8F08FE0489FEDE0AB8C
:1042E0009FEDE1BBA84247DDE14F9FEDE39B9FEDD2
:1042F000E48B9DED120B53EC1A2B51EC100B002E9E
:104300001CDD04F055FB41EC100BBD4208D053EC12
:104310001B2B51EC100B04F04BFBC4E900010BE02C
:1043200053EC192B51EC100B04F042FB53EC182BFF
:1043300004F03EFBC4E900010120C8E703F082FD60
:1043400041EC100BBD4208D053EC1B2B51EC100B71
:1043500003F078FDC4E900010BE053EC192B51EC9C
:10436000100B03F06FFD53EC182B03F06BFDC4E949
:1043700000014FF0FF30AAE7C348A84279DB9DED6A
:10438000120B51EC100B00F067FE41EC180B9FED87
:10439000C00B53EC102B04F043F99FEDBF1B53EC03
:1043A000112B03F04FFD04F031F8074604F000F93B
:1043B00041EC190B53EC1A2B04F032F953EC182B87
:1043C00004F0CEFA41EC180B53EC1B2B51EC190BFB
:1043D00004F026F9DFF8C8A241EC100B4FEA15589B
:1043E0000125FA4453EC102B51EC180B04F0E0FAC1
:1043F000032DC4E900013DD0C1F30A5005EB45117E
:10440000A8EB00001139814234DA0AEB051BB0EE4B
:1044100048AA9BED000BF0EE68AA53EC102B51EC70
:10442000190B04F0FDF841EC1B0B51EC1A0B53EC8B
:104430001B2B04F0BDFA41EC180B51EC1A0B53EC9A
:10444000182B04F0B5FA53EC1B2B04F0B1FA9BEDDA
:10445000020B41EC1A0B53EC102B51EC190B04F02E
:10446000DFF853EC1A2B04F0A3FA41EC100B6D1C8F
:10447000B8E70EE0002EA8BF3846BFF628AF94ED8F
:10448000000B51EC100B03F06FFBC4E90001784204
:104490001DE7C6F3130040F4801EC6F30A50A0F2D5
:1044A000F530471100F01F05C5F12000DDF848B0D8
:1044B00008900020069007900520EC467949002DD1
:1044C00007EB0002794408BF51F8221009D051F8D7
:1044D000223001EB8201AB404A68089922FA01F1CF
:1044E0001943A1FB0E26A1FB0B131A449A4234BFB9
:1044F0000123002303EB06080CEB8003D3E901A69C
:104500000E448E4234BF0121002192448A4411B1ED
:10451000924502D903E0924501D2012100E0002139
:10452000C3E901A641444CF82010011EA0F101008E
:10453000C4DC029800F10050850F0298DDE90367A2
:104540008000DDF8148004F033F841EC1A0B30469B
:1045500004F052F89FED541B53EC112B04F060F85B
:1045600041EC1B0B384604F047F89FED511B53EC10
:10457000112B04F055F841EC180B404604F03CF8C0
:104580009FED4D1B53EC112B04F04AF841EC190B35
:1045900051EC180B53EC192B03F054FC53EC1B2B70
:1045A00003F050FC53EC1A2B03F04CFCCDE908014E
:1045B000002008909DED080B53EC1A2B51EC100BCA
:1045C00004F0F6F953EC1B2B04F0F2F953EC182B22
:1045D00004F0EEF953EC192B04F0C2F99FED381BEF
:1045E00053EC112B04F01CF89FED370B41EC180B2A
:1045F00053EC102B9DED080B51EC100B04F010F850
:1046000053EC182B03F01EFC9FED310B41EC180B03
:1046100053EC102B9DED080B51EC100B04F000F83F
:1046200053EC182B03F00EFC41EC100B139810F018
:10463000004F06D06D4251EC100B03F095FA41EC9F
:10464000100B284684ED000B41E60000000000003E
:104650000000000000000000FB21E93F7CD902407F
:1046600000004054FB21F93F3163621A61B4D03D30
:10467000FB21F93F000000000000601A61B4D03D4A
:104680007370032E8A19A33BFB21394100000000FF
:1046900083C8C96D305FE43F000000000000E03FC8
:1046A000525B0000A05A0000000000000000103E15
:1046B000000000000000103C000000000000103A64
:1046C000182D4454FB21F93D3326A611460B113C0D
:1046D00000000054FB21F93D70B504462DED028B1E
:1046E0004D1E00EBC500B0EE408AF0EE608A90ED02
:1046F000000B35F0060017D053EC182B51EC100BC3
:1047000003F08EFF41EC100B6D1E04EBC50090ED25
:10471000001B51EC100B53EC112B03F093FB41ECFD
:10472000100B35F00600E7D1022D36D0042D1CD039
:10473000062D1CBFBDEC028B70BD53EC182B51EC49
:10474000100B03F06DFF94ED0A1B53EC112B03F0DB
:1047500079FB53EC182B03F063FF94ED081B53EC2B
:10476000112B03F06FFB41EC100B53EC182B51ECA9
:10477000100B03F055FF94ED061B53EC112B03F0C7
:1047800061FB53EC182B03F04BFF94ED040B53EC3F
:10479000102B03F057FB41EC100B53EC182B51EC92
:1047A000100B03F03DFF94ED021B53EC112B03F0B3
:1047B00049FB53EC182B03F033FF94ED001B53EC33
:1047C000112B03F03FFBBDEC028B41EC100B70BDD5
:1047D000F1B506462DED040BBD482DED0C8B8AB0CE
:1047E000B0EE418AF0EE618A179D25F000449FEDFE
:1047F000BABB9FEDBBCB844208DA9DED160B51ECA2
:10480000100B03F003FE002800F0E980B64FA7422A
:1048100031DC002D0DDA9DED160B51EC100B03F081
:10482000A3F9CDE9160151EC180B03F09DF941EC09
:10483000180B9FEDAF0B53EC102B9DED160B51ECAD
:10484000100B04F08DF853EC182B9FEDAB0BCDE95A
:10485000040151EC100B04F0ABF841EC100B53ECDD
:10486000102B9DED040B51EC100B03F0EBFA9FEDB8
:10487000A48BCDE916019DED160B53EC102B51ECDA
:10488000100B03F0CDFECDE904019DED040B53ECBC
:10489000102B51EC100B03F0C3FE41EC190B9A489E
:1048A0000621B0EE490AF0EE690A7844FFF714FFDA
:1048B0009648B0EE40DAF0EE60DAB0EE490AF0EE7B
:1048C000690A06217844FFF707FF9DED041B51ECB0
:1048D000100B53EC112B03F0A3FE9DED040B41ECE8
:1048E0001A0B53EC102B9DED160B51EC100B03F033
:1048F00097FE41EC190B53EC1A2B51EC1D0B03F0F6
:10490000A1FA53EC192B03F08BFE53EC182B03F098
:1049100099FA9DED041B53EC112B03F081FE53EC2F
:10492000182B03F08FFA41EC180B9FED790B51EC2B
:10493000190B53EC102B03F073FE53EC182B03F000
:1049400081FA41EC190B9DED160B53EC192B51EC30
:10495000100B03F077FA41EC180BA74269DC3046E4
:1049600003F026FE41EC1A0B51EC180B53EC1A2BFA
:1049700003F068FA41EC1B0B53EC182B51EC180BAD
:1049800003F04EFE53EC1B2B03F082FB53EC192B70
:1049900004F00EF89DED161B53EC112B03F0E0FF15
:1049A0009FED5D1B53EC112B03F03AFE53EC1A2BD9
:1049B00003F0D6FF41EC180B022000EAA570C0F10D
:1049C000010003F0F5FD53EC182B03F029FE00BFA6
:1049D00041EC100B0AB0BDEC0C8B05B0F0BD711CA6
:1049E0001698214308430CD09DED160B012E1CBFD9
:1049F00053EC102B51EC1C0B10D000BF03F048FB04
:104A0000E6E79DED160B51EC100B00F025FB41EC99
:104A1000100B51EC1B0B53EC102BEFE751EC100B70
:104A2000FFF7D5FB042808BF00F096F89DED160BA4
:104A3000D0E7012E04BFB0EE480AF0EE680AC9D0F4
:104A40008DED048B002404949DED040B53EC102B8E
:104A50009DED160B51EC100B03F082FF53EC192B5C
:104A600003F07EFF41EC190B53EC182B51EC1C0B9F
:104A700003F00EFB41EC180B8DED008B00949DEDC7
:104A8000040B53EC102B9DED000B51EC100B03F0BD
:104A9000C7FD53EC1B2B03F0D5F99DED000B41EC4A
:104AA0001A0B53EC192B51EC100B03F0B9FD53EC1E
:104AB0001A2B03F0C7F953EC182B03F0B1FD9DED51
:104AC000001B53EC112B03F0BDF981E7000000003F
:104AD0000000303E00000000000000000000F03F39
:104AE000000000000000F0BF2894E53F0000000037
:104AF000182D4454FB21E93F075C143326A6813C62
:104B0000000000000000000052570000685700003D
:104B1000635555555555D53F000000000000004035
:104B200010B553EC102B51EC100B03F08BF941EC4A
:104B3000100B10BD000000009FED050B10B553ECED
:104B4000102B51EC100B03F0A3FA41EC100B10BD2D
:104B500000000000000000009FED050B10B553ECB5
:104B6000102B51EC100B03F05BFD41EC100B10BD52
:104B700000000000000000100D4810B5B0F9000062
:104B800000EE100A0B48F8EEC00AB0F9000000EE83
:104B9000100A0948B8EEC00AFEF734FBB1EE400A2D
:104BA0000649BDEEC00A10EE100A088010BD0000D4
:104BB000780000202C000020B01700202A000020E0
:104BC00010B52C4CB4F9280000EE100AB4F902001C
:104BD000F8EEC00A00EE100A04F1E000B8EEC00AD8
:104BE000FEF710FBBDEEC00A10EE100A6085B4F9A6
:104BF000600000EE100AB4F93A00F8EEC00A00EEC8
:104C0000100A04F59470B8EEC00AFEF7FBFABDEE88
:104C1000C00A10EE100AA4F86200B4F9980000EE81
:104C2000100AB4F97200F8EEC00A00EE100A04F59A
:104C3000B870B8EEC00AFEF7E5FABDEEC00A10EE95
:104C4000100AA4F89A00B4F9D00000EE100AB4F9E2
:104C5000AA00F8EEC00A00EE100A04F5DC70B8EE07
:104C6000C00AFEF7CFFABDEEC00A10EE100AA4F893
:104C7000D20010BDB015002030B54418A51A074B5E
:104C800014446442A3F8D0500D1AAD1AA3F89850FA
:104C9000401AA3F86040801A188530BDB015002076
:104CA00000B58BB000200121CDE9060108910090EC
:104CB0000190029003900590049069460C48FBF720
:104CC000DDFF0B48FCF7B8FB02210948FBF75FFF4B
:104CD0000E200990059069460648FBF7CFFF05486E
:104CE000FCF7AAFB02210348FBF751FF0BB000BD04
:104CF000440800206C08002010B5274C27480121EB
:104D000094ED010A024680ED000A94ED020A80ED5E
:104D1000010A94ED030A80ED020AD4ED050A94ED30
:104D2000040AA0F5B470FEF701FB1C4AD4ED050A95
:104D300094ED040A0121A2F59070FEF7F7FA174AE4
:104D4000D4ED050A94ED040A0121A2F1D800FEF782
:104D5000EDFA124AD4ED050A94ED040A0121A2F1FC
:104D60009000FEF7E3FA0D4894ED060A0C30024677
:104D700080ED000A94ED070A002180ED010A94ED10
:104D8000080A80ED020AD4ED0A0A94ED090ABDE88A
:104D900010405438FEF7CABA78000020F8170020F7
:104DA0002DED068BFFF7A8FF9FED908B9FED919B5C
:104DB0009FED92ABDFF84CA2DFF84C92934C944DF0
:104DC000944E954F4FF000082078022802D0032817
:104DD00009D05CE0A5F82A80A5F86280A5F89A8041
:104DE000A5F8D280E4E0BAF80010B9F90000081A7A
:104DF00003F0DEFB53EC182B03F012FC53EC192BE1
:104E000003F00EFC53EC1A2B03F00AFC02F0B8FE80
:104E100000EE100A84ED050AFBF7E4FA84ED060AB9
:104E200094ED050AFBF7A2FA84ED070AB4F9022013
:104E3000B4F9041000EE902A01EE901A94ED061ACF
:104E4000F8EEE00AF8EEE11A60EE200A41EE210ADF
:104E5000FDEEE00A10EE900A00EE901A00B2F8EEB5
:104E6000E00A208160EE200A00EE102AB8EEC00AA7
:104E700041EE400ABDEEE00A10EE101A09B261815F
:104E8000B4F90620A281FFF7F7FEFFF799FE20781C
:104E900001287DD1BAF80010B9F90000081A03F012
:104EA00087FB53EC182B03F0BBFB53EC192B03F0DF
:104EB000B7FB53EC1A2B03F0B3FB02F061FE00EEDC
:104EC000100A84ED050AFBF78DFA84ED060A94EDCD
:104ED000050AFBF74BFA84ED070AB4F90230B4F97E
:104EE00004C000EE903A01EE90CAF8EEE00AF8EE47
:104EF000E11A20EE201AD4ED060A00EEA11ABDEE4A
:104F0000C11A11EE100A01EE10CA00B2B8EEC11AB1
:104F1000208120EE011A00EE103AB8EEC00A00EE31
:104F2000C01ABDEEC10A10EE101A09B26181B4F9BF
:104F30000620A28182B153EA0C0335D000EE102A7C
:104F4000F7EE080AB8EEC00A20EE200ABDEEC00A4D
:104F500010EE102A12B227E0BAF900102182B9F936
:104F60000000421AB2F5805F02DD01F50051218296
:104F7000B4F91010421A12F5805F02DAA1F500515F
:104F80002182B4F91010401A0930122804D900E027
:104F90000EE0FFF7F1FD01E0A4F80E80B4F90E2059
:104FA000B4F90A10B4F90800FFF766FEFFF708FE2F
:104FB000FBF7F0FC308BD4ED091A00EE100A78688C
:104FC00094ED081AF8EE400A00EE100A01F01AFDFE
:104FD000B5F9D230B5F99A20B5F96210B5F92A00C1
:104FE00001F022FD022001F06FFFEDE6000000005D
:104FF000000000404AD8124DFB210940000000008B
:105000000000203F78150020780000201C000020C0
:10501000B015002037180020521800200D4C00BF9A
:1050200001F046FD052001F04FFF01F085FD052050
:1050300001F04AFF01F0B6FD052001F045FFD4F86C
:10504000030000EE100A01F017FD142001F03CFFF0
:10505000E6E700000901002082B0CDE9000121F05F
:10506000004001909DED000B02B051EC100B704719
:10507000EFF3108172B6436802699A4201D902685F
:10508000026112F8013B02618268521C8260C268B0
:10509000521E81F31088C260184670478B185B1E41
:1050A0000160C0E901320022C0E9032141611046DC
:1050B00070472DE9F0475FEA01080546EFF31086D7
:1050C00072B62FD0AC686CB369686869884201D940
:1050D00028686861944200DD14460F1A7F1CA742BD
:1050E00006DB22464146FBF73EFA686920440DE0A4
:1050F000A4EB07093A464146FBF735FA08EB0701EE
:105100004A462868FBF72FFA286848446861A8686F
:10511000001BA860E8682044E860204686F31088F9
:10512000BDE8F08786F310884FF0FF30F8E7C068DD
:105130007047028802810A8852BA02804A8852BAAD
:1051400042808A8852BA8280897981717047028848
:1051500002810A8852BA02804A8852BA42808A88FA
:1051600052BA82808979817170470000FCF7B8FCDF
:10517000FEF71AFBFDF7F0FDFDF77CFDFDF774FE71
:10518000FEF722F8FDF794FEFDF7E4FEFDF724FF9D
:10519000FDF774FFFDF7DEFFFDF70EFDFDF732FDB5
:1051A000FDF7F6FFFDF754FDFFF77AFD01223C21E4
:1051B0000348FCF781FCFDF79BFD00F009F8FEE7D2
:1051C000001C02400021842800D0C11C0846704702
:1051D00010B501F0E7FE002010BD30B585B00446E3
:1051E0000D466169B4F90800002910D0A16971B1B8
:1051F000FFF7E8FF6269A1690192029100902B46D6
:1052000022692168606802F0A3FA049010E0FFF7B9
:10521000D9FF04A901910090208A2B4682B221680F
:10522000606802F05FFA012802D005B0002030BDAE
:10523000049805B030BD00002DE9F04104460F464A
:105240001B4EF5683168002081F852003068001D5F
:1052500001F0FCFC48B93068012190F82C0001FAFB
:1052600000F0316921EA00003061B4F1FF3F07D15D
:1052700037B13068BDE8F041011D0E4801F039BD7D
:105280002C4430684460AC4206D23068011DB06BDB
:10529000BDE8F04101F012BD3068011D706B01F0F6
:1052A0000DFDB06A844200D2B462BDE8F081000016
:1052B000200100205C1A002070B5044601F026FD94
:1052C0001C4DA868401CA860286810B1686938B1F6
:1052D0000CE02C60A868012808D100F08FF905E0E7
:1052E0002868E16AC06A884200D82C60686A401C5D
:1052F0006862E06A01212A698140114329610E49EF
:1053000000EB800001EB8000211D01F0F2FC01F0B8
:105310001DFD686900280CD02868E16AC06A8842CF
:1053200007D206494FF080500860BFF34F8FBFF39C
:105330006F8F70BD200100208019002004ED00E077
:1053400038B501F0E3FC0F4C2068B8B90E4801F005
:10535000A7FC0E4801F0A4FC0B48E060143020616B
:1053600000200B4B009003F1480210210A2001F0AD
:1053700031FF206010B107A101F06CFDBDE838409D
:1053800001F0E4BC5C010020581B00206C1B0020D5
:10539000701A0020546D72510000000070B50D4C61
:1053A0006068002815D00C4E01F0B0FCF068C568AC
:1053B000281D01F04BFCA068401EA0606068401EE4
:1053C000606001F0C3FC284600F051F860680028D6
:1053D000EAD170BD20010020481A00200B46026C63
:1053E000002A0CD0C1681144C160D0F808C06145E2
:1053F00001D30168C160C1681846FBF7B4B87047B3
:105400002DE9F041044616460027A56B226C002AC0
:1054100010D0C6B1E068FBF7A6F8E168206C091A65
:10542000E1602268914202D2A168081AE060022E6F
:1054300016D017E02068A8B9A06802F037FA07462E
:105440000020A0600EE06068FBF78DF8216C6068BA
:1054500008446060A168884204D32068606001E06D
:1054600005B16D1E681CA0633846BDE8F08110B51B
:10547000044694F8511000290BD0012911D00229BB
:1054800014D0502080F31188BFF34F8FBFF36F8F7C
:10549000FEE7206B01F070FC2046BDE8104001F0F3
:1054A0006BBC2046BDE8104001F066BC10BD00009A
:1054B0000749CA681168002904D00021016019B1A8
:1054C000002070470121F9E7D068006870470000AC
:1054D0005C0100204FF47051104810F0070F06D007
:1054E000C01D20F007000D49411AC1F570510C4A4A
:1054F0001060002353600144083921F00701183A75
:1055000011604B600B600B1A436001604068906053
:1055100050604FF00040506170470000801B002039
:1055200088010020074E4FF08054074DFFF736FFEB
:1055300030680128FAD92C60BFF34F8FBFF36F8F0B
:10554000F4E700008019002004ED00E00346009815
:10555000002905D00260C3630164012101F072BE1D
:105560000060F8E72DE9F05F82460B9F0A9D0C9CD6
:105570000E4690469B464FEA8801A522206BFBF71A
:1055800069F8206BA8F1010100EB810020F0070908
:105590004FF0000866B100202218315C82F8341008
:1055A000315C11B1401C1028F6D384F8438001E02F
:1055B00084F83480072D00D30625E5626564C4F8BD
:1055C0004880201D01F077FB04F1180001F073FB07
:1055D0002461C5F10700A0616462C4F84C8084F8BE
:1055E000508084F852805A465146484600F0C4FA2A
:1055F0002060002F00D03C60BDE8F09F70B5002413
:105600000F4D04EB840005EB800001F049FB641CA6
:10561000072CF6D30B4801F043FB0B4801F040FB8D
:105620000A4801F03DFB0A4801F03AFB094801F045
:1056300037FB0948034941631431816370BD0000A1
:10564000801900200C1A0020201A0020341A002093
:10565000481A00205C1A00202001002010B41449D0
:1056600000E011460A688242FBD34B6803EB010C51
:10567000844503D140681844486008460C68D0F857
:1056800004C00CEB0003A3420CD10A4B1B689A42E6
:1056900006D05268624442600A681268026002E002
:1056A000036000E00260814200D0086010BC7047D7
:1056B000880100207001002010B5002441600061C5
:1056C000DFF838C091420BD8D11A8269914201D3D8
:1056D000012410E0011DDCF8100001F0EFFA0AE0EF
:1056E0009A4203D2994201D3012404E0011DDCF85F
:1056F0000C0001F0E3FA204610BD00005C01002020
:1057000010B5044601F002FBA06B20B1002401F0AB
:105710001DFB204610BD0124F9E710B5044601F039
:10572000F5FAA06BE16B884201D1012400E000246E
:1057300001F00CFB204610BDF8B505460E46174893
:10574000C068C068C468201D01F080FA94F8240085
:1057500010F0040F18D0A0692B464119324620469C
:10576000FFF7AAFFA0B100200346014600902A4699
:10577000204602F0BFF958B9502080F31188BFF3DA
:105780004F8FBFF36F8FFEE720F0010084F82400F5
:10579000216A01B02046BDE8F04008475C010020C6
:1057A00030B587B0414D002202A9286801F0AAFE59
:1057B000002875D00298002803DA039A0599049806
:1057C00090470298002864DB049C606910B1201D9A
:1057D00001F03CFA01A800F0B3F8024602980A284A
:1057E00057D2DFE800F00505052F364D05052F36A9
:1057F00094F8240040F0010084F824000398A16983
:10580000034601442046FFF757FF002841D0216A94
:105810002046884794F8240010F0040F39D0002067
:1058200000900398A169002342181946204602F00F
:1058300061F970BB502080F31188BFF34F8FBFF325
:105840006F8FFEE794F8240020F0010084F8240014
:105850001FE094F8240040F0010084F8240003982D
:10586000A06128B1811813462046FFF725FF10E0FC
:10587000502080F31188BFF34F8FBFF36F8FFEE787
:1058800094F8240010F0020F0CD020F0010084F8EE
:105890002400002202A9286801F034FE002889D1E2
:1058A00007B030BD204601F067FAF2E75C01002046
:1058B000F8B505460C4601F0BDFB684600F040F81F
:1058C0000646009810B102F07BF8F8BD44B9B54225
:1058D00006D802F075F831462846FFF72DFFF8BDCF
:1058E0000C481CB10169096891B10024A91B22462A
:1058F000006801F0C3FA02F063F80028EFD106490E
:105900004FF080500860BFF34F8FBFF36F8FF8BD2B
:105910000124EBE75C01002004ED00E00749486B3F
:105920000068002805D0486BC068C068406888627D
:1059300070474FF0FF308862704700002001002060
:1059400070B5044601F042FF0546074EB068854237
:1059500004D200F00BF80120206001E0002020605C
:10596000B560284670BD00005C010020F8B51C4EF3
:10597000F0680068002826D00027F068C068056835
:10598000C468201D01F062F9216A2046884794F816
:10599000240010F0040F12D0A0692844A84206D9B0
:1059A00060602461211DF06801F088F907E00023A0
:1059B0002A4619462046009702F09CF840B1F0684C
:1059C00000680028D9D1F0683169F1603061F8BD14
:1059D000502080F31188BFF34F8FBFF36F8FFEE726
:1059E0005C0100200A484068B0F1FF3F07D050201A
:1059F00080F31188BFF34F8FBFF36F8FFEE7502006
:105A000080F31188BFF34F8FBFF36F8FFEE7000065
:105A10009001002082B001A8FFF74AFD0199FFF72D
:105A200047FFFFF7BDFEF6E770B5044601F06EF9DB
:105A300094F94550002D0CDD606A50B104F124004A
:105A400001F082FF08B101F06FFA681E45B2002D27
:105A5000F2DC4FF0FF3684F8456001F077F901F091
:105A600055F994F94450002D0CDD206950B104F132
:105A7000100001F069FF08B101F056FA681E45B246
:105A8000002DF2DC84F84460BDE8704001F05EB99E
:105A90002DE9F0410546002601F0CCFA344F386874
:105AA00008B9FFF717FD7869054251D19DB1083556
:105AB00015F0070F0FD005F00700C0F108000544EE
:105AC00015F0070F07D0502080F31188BFF34F8FD8
:105AD000BFF36F8FFEE7002D3AD07868854237D844
